S00B00004441352E737265635F
S113000059C000006AC0000068C0000066C000005B
S113001064C0000062C0000060C000005EC0000058
S11300205CC000005AC0000058C0000056C0000068
S113003054C0000052C0000050C000004EC0000078
S11300404CC000004AC0000048C0000046C0000088
S113005044C0000042C0000040C000003EC0000098
S11300603CC000003AC0000038C0000036C00000A8
S113007034C0000032C0000030C000002EC00000B8
S11300802CC000002AC0000028C0000026C00000C8
S113009024C0000022C0000020C000001EC00000D8
S11300A01CC000001AC0000018C0000016C00000E8
S11300B014C0000011241FBECFEFD8E0DEBFCDBFB7
S11300C011E0A0E0B1E0E6ECF5E002C005900D928D
S11300D0A434B107D9F72FD074C292CF88E08093AB
S11300E0C10086E08093C20087E68093C40008952F
S11300F0E0ECF0E0908195FFFDCF8093C600089579
S1130100CF93DF93EC018881882329F02196F0DFD7
S113011089918111FCCFDF91CF9108958EBD0DB4EB
S113012007FEFDCF8EB5089580528EBD0DB407FE37
S1130130FDCF8EB50895CF93DF9300D000D0CDB717
S1130140DEB784B18C6284B92C98C8DF8DB58DBDBF
S11301508CB580618CBD8CB583608CBD8CB580649E
S11301608CBD84E480937C0085E880937A000AE760
S113017010E00F2EF8E76F2E712CF02D0F2EF9E7FB
S11301804F2E512CF02DCE0101965C01F801808197
S113019080648083F801808184FFFCCF808180614A
S11301A08083F3016081F201808170E0782B072E57
S11301B0000C880B990BE3D020E030E040E85AE3D0
S11301C06AD120E030E44CE955E465D120E030E028
S11301D040E251E439D0A0D0DC01CB014AE0B501C2
S11301E0BDD16501E12CF12C24C04601F6018191B9
S11301F06F0194DF382E80E091E082DF832D78DF79
S11302008DE191E07DDFFFEF23ED80E3F1502040AD
S11302108040E1F700C00000F401808185DF68DFE1
S113022082E291E06DDF81E491E06ADFFFEFEF1A93
S1130230FF0AF50101900020E9F73197EA19FB095B
S1130240EE16FF0690F2A2CF0CD0EBC0E3D040F044
S1130250DAD030F021F45F3F19F0CCC0511115C150
S1130260CFC0F0D098F39923C9F35523B1F3951B6C
S1130270550BBB27AA2762177307840738F09F5FC3
S11302805F4F220F331F441FAA1FA9F333D00E2E32
S11302903AF0E0E830D091505040E695001CCAF79F
S11302A029D0FE2F27D0660F771F881FBB1F261764
S11302B037074807AB07B0E809F0BB0B802DBF0137
S11302C0FF2793585F4F2AF09E3F510568F092C074
S11302D0DCC05F3FECF3983EDCF386957795679539
S11302E0B795F7959F5FC9F7880F911D96958795E8
S11302F097F90895E1E0660F771F881FBB1F621707
S113030073078407BA0720F0621B730B840BBA0BC4
S1130310EE1F88F7E095089504D06894B111B5C034
S1130320089598D088F09F5790F0B92F9927B75126
S1130330A0F0D1F0660F771F881F991F1AF0BA95A5
S1130340C9F712C0B13081F09FD0B1E008959CC0CC
S1130350672F782F8827B85F39F0B93FCCF386959B
S113036077956795B395D9F73EF4909580957095F8
S113037061957F4F8F4F9F4F0895E89409C097FB75
S11303803EF490958095709561957F4F8F4F9F4F68
S11303909923A9F0F92F96E9BB279395F6958795AC
S11303A077956795B795F111F8CFFAF4BB0F11F46F
S11303B060FF1BC06F5F7F4F8F4F9F4F16C0882316
S11303C011F096E911C0772321F09EE8872F762F4C
S11303D005C0662371F096E8862F70E060E02AF08D
S11303E09A95660F771F881FDAF7880F9695879579
S11303F097F9089597F99F6780E870E060E00895A1
S11304009FEF80EC089500240A9416161706180628
S11304100906089500240A94121613061406050604
S11304200895092E0394000C11F4882352F0BB0F95
S113043040F4BF2B11F460FF04C06F5F7F4F8F4FF8
S11304409F4F089557FD9058440F551F59F05F3F33
S113045071F04795880F97FB991F61F09F3F79F0E2
S113046087950895121613061406551FF2CF469564
S1130470F1DF08C0161617061806991FF1CF8695E6
S11304807105610508940895E894BB2766277727CA
S1130490CB0197F908950BD0C4CFB5DF28F0BADFAC
S11304A018F0952309F0A6CFABCF1124EECFCADF05
S11304B0A0F3959FD1F3950F50E0551F629FF00173
S11304C0729FBB27F00DB11D639FAA27F00DB11DCC
S11304D0AA1F649F6627B00DA11D661F829F222755
S11304E0B00DA11D621F739FB00DA11D621F839FDC
S11304F0A00D611D221F749F3327A00D611D231FB2
S1130500849F600D211D822F762F6A2F11249F57FF
S113051050408AF0E1F088234AF0EE0FFF1FBB1F22
S1130520661F771F881F91505040A9F79E3F5105C1
S113053070F060CFAACF5F3FECF3983EDCF3869572
S113054077956795B795F795E7959F5FC1F7FE2B6C
S1130550880F911D9695879597F90895BB274A3082
S113056031F4992322F4BDE2909581959F4F01C007
S1130570BB27FB015527AA27880F991FAA1FA41779
S113058010F0A41B83955051B9F7A05DAA3308F06D
S1130590A95DA193009779F7B111B1931192CB01A1
S11305A000C0DC01FC01672F71917723E1F73297DA
S11305B004C07C916D9370836291AE17BF07C8F33A
S10905C00895F894FFCF3A
S11305C65458204C6F6F706261636B20436F6D707B
S11305D66C65746520202E2E2E20202000202020DD
S11305E62000202020202E2E2E2E2E205258204C45
S11305F66F6F706261636B20436F6D706C657465B9
S1070606000A0000E2
S9030000FC
