S00B00004441362E737265635E
S113000059C0000072C0000070C000006EC0000043
S11300106CC000006AC0000068C0000066C0000038
S113002064C0000062C0000060C000005EC0000048
S11300305CC000005AC0000058C0000056C0000058
S113004054C0000052C0000050C000004EC0000068
S11300504CC000004AC0000048C0000046C0000078
S113006044C0000042C0000040C000003EC0000088
S11300703CC000003AC0000038C0000036C0000098
S113008034C0000032C0000030C000002EC00000A8
S11300902CC000002AC0000028C0000026C00000B8
S11300A024C0000022C0000020C000001EC00000C8
S11300B01CC0000011241FBECFEFD8E0DEBFCDBFAF
S11300C011E0A0E0B1E0E0E8F1E002C005900D929B
S11300D0A630B107D9F721E0A6E0B1E001C01D9236
S11300E0A630B207E1F72BD049C08ACFE1ECF0E0AB
S11300F0808188618083A2ECB0E08C9186608C93CF
S11301001092C50087E68093C40080818068808354
S11301100895E0ECF0E0908195FFFDCF8093C60058
S11301200895CF93DF93EC018881882329F02196E9
S1130130F0DF89918111FCCFDF91CF910895CF93A6
S1130140DF9300D000D0CDB7DEB7D0DF88E4809352
S1130150B800ECEBF0E0808184608083CE010196EE
S1130160E0DF2FEF87EA91E6215080409040E1F7ED
S113017000C0000080E091E0D4DFF0CFF894FFCF1E
S10901800D0A0D0A000047
S9030000FC
