:10000000D6C00000F0C00000EEC00000ECC0000050
:10001000EAC00000E8C00000E6C00000E4C0000044
:10002000E2C00000E0C00000DEC00000DCC0000054
:10003000DAC00000D8C00000D6C00000D4C0000064
:10004000D2C00000D0C00000CEC00000CCC0000074
:10005000CAC00000C8C00000C6C00000C4C0000084
:10006000C2C00000C0C00000BEC00000BCC0000094
:10007000BAC00000B8C00000B6C00000B4C00000A4
:10008000B2C00000B0C00000AEC00000ACC00000B4
:10009000AAC00000A8C00000A6C00000A4C00000C4
:1000A000A2C00000A0C000009EC000009CC00000D4
:1000B0009AC0000000407A10F35A00A0724E18094E
:1000C0000010A5D4E80000E87648170000E40B54BF
:1000D000020000CA9A3B000000E1F505000080968E
:1000E0009800000040420F000000A08601000000C0
:1000F000102700000000E80300000000640000007A
:1001000000000A00000000000100000000002C7642
:10011000D888DC674F0823DFC1DFAE59E1B1B7965D
:10012000E5E3E453C63AE651997696E8E6C28426BA
:10013000EB898C9B62ED407C6FFCEFBC9C9F40F296
:10014000BAA56FA5F490055A2AF75C936B6CF96712
:100150006DC11BFCE0E40D47FEF520E6B500D0EDD7
:10016000902E0300943577050080841E080000203F
:100170004E0A000000C80C333333330F986E1283DD
:100180001141EF8D2114893BE65516CFFEE6DB18B1
:10019000D1844B381BF77C1D901DA4BBE424203276
:1001A00084725E228100C9F124ECA1E53D2711246F
:1001B0001FBECFEFD8E0DEBFCDBF12E0A0E0B1E0C0
:1001C000E6E4F6E102C005900D92A837B107D9F731
:1001D00022E0A8E7B2E001C01D92A73AB207E1F71A
:1001E00084D10C94210B0CCF2FEF82E597E02150A6
:1001F00080409040E1F700C0000082E760D080E8D6
:10020000B8D083E0B6D0ACD082E759D081E8B1D085
:100210008BEDAFD0A5D082E752D08FE8AAD081E095
:10022000A8D09EC00895CF93DF93D82FC62F80E823
:1002300046D08D2F9ED08C2F9CD092D0DF91CF9125
:10024000089580E83CD080938002882311F088D004
:10025000FFCF089569E081E5E6DF64E086EEE3DF45
:100260002FEF81EF9BE2215080409040E1F700C0EA
:10027000000060E081E5D7DF60E086EED4DF2FEF9D
:1002800081EF9BE2215080409040E1F700C00000E8
:100290000895E1ECF0E0808188618083E2ECF0E099
:1002A00080818660808387E68093C4001092C500B9
:1002B00008951092B90088E48093B800089594EAF4
:1002C0009093BC00ECEBF0E090819923ECF79091D7
:1002D000B900987F983011F09031A1F48093BB0061
:1002E00084E88093BC00ECEBF0E080818823ECF79D
:1002F0009091B900987F983139F081E0903429F4D9
:1003000080E0089581E0089580E00895CF93DF9321
:10031000ECEBF0E024EAA9EBB0E0CBEBD0E034E882
:1003200044E9208390819923ECF79C91987F983041
:1003300011F09031B1F78883308390819923ECF7E5
:100340009C91987F903211F0983529F440839081E8
:1003500094FDFDCFE6CFDF91CF910895B0CF089502
:1003600084E98093BC00ECEBF0E0808184FDFDCF5C
:1003700008958093BB0084E88093BC00ECEBF0E030
:1003800080818823ECF79091B900987F81E09832C2
:1003900009F480E0089584EC8093BC00ECEBF0E07D
:1003A00080818823ECF78091BB00089584E88093D6
:1003B000BC00ECEBF0E080818823ECF78091BB007F
:1003C0000895E1ECF0E0808188618083A2ECB0E0E8
:1003D0008C9186608C931092C50087E68093C40050
:1003E0008081806880830895E0ECF0E0908195FF43
:1003F000FDCF8093C6000895CF93DF93EC018881F1
:10040000882329F02196F0DF89918111FCCFDF91BB
:10041000CF91089582E753DF84E9ABDFA1DF83E763
:100420004EDFB9DF90E09093790280937802B3DFDA
:100430002091780230917902382B30937902209301
:100440007802A9DF90E090937F0280937E02A3DF81
:1004500020917E0230917F02382B30937F022093CF
:100460007E0299DF90E090937D0280937C0293DF7F
:1004700020917C0230917D02382B30937D022093B5
:100480007C0289DF90E090937B0280937A0283DF85
:1004900020917A0230917B02382B30937B0220939B
:1004A0007A025ECF0895CF93DF93C82F80E82EDFC6
:1004B0008C2F5FDF81E85DDF81E850DF6CDFC82FC4
:1004C000D0E0D093A502C093A40270DFDC2FCC272C
:1004D000C82BD093A502C093A40242DF8091A4024E
:1004E0009091A502DF91CF910895CF93DF93CDB77F
:1004F000DEB7A3970FB6F894DEBF0FBECDBF61DFA6
:1005000060E875E280E090E0C4DED3DE2FEF83EC9C
:1005100099E0215080409040E1F700C0000091DE5A
:100520002FEF83EC99E0215080409040E1F700C02C
:10053000000090DE2FEF83EC99E021508040904046
:10054000E1F700C0000050DE2FEF83EC99E021506E
:1005500080409040E1F700C0000080E091E04CDF77
:100560002FEF8BE792E9215080409040E1F700C0E7
:10057000000085E091E040DF2FEF8BE792E921500A
:1005800080409040E1F700C0000083E191E034DF5B
:100590002FEF8BE792E9215080409040E1F700C0B7
:1005A000000089E491E028DF2FEF8BE792E92150EA
:1005B00080409040E1F700C000006E012FE1C20EC4
:1005C000D11C0F2EF7E5AF2EF1E0BF2EF02DCE019E
:1005D00001967C0183EE67DF9093A3028093A202D1
:1005E000BC0180E090E0E3D120E030E44FE253E44E
:1005F0006CD220E030E040E857E367D226E636E6EA
:100600004BE352E443D1A7D17093820260938102FD
:1006100080E090E0CCD1860122E043E0B9D2DF92C5
:10062000CF92BF92AF92FF92EF92F4D28CE691E01C
:10063000E3DE9FEF27EA81E6915020408040E1F71A
:1006400000C0000085E991E0D7DE9FEF27EA81E650
:10065000915020408040E1F700C0000085EA91E021
:10066000CBDE9FEF27EA81E6915020408040E1F702
:1006700000C00000C701C0DE9FEF27EA81E691506D
:1006800020408040E1F700C000008EEC91E0B4DE35
:100690009FEF27EA81E6915020408040E1F700C0BB
:1006A0000000B8DE4AE0B7018091780290917902AB
:1006B0008ED28CE691E0A0DE9FEF27EA81E6915092
:1006C00020408040E1F700C0000085E991E094DE21
:1006D0009FEF27EA81E6915020408040E1F700C07B
:1006E000000083ED91E088DE9FEF27EA81E69150DC
:1006F00020408040E1F700C00000C7017DDE9FEF91
:1007000027EA81E6915020408040E1F700C00000D8
:100710008EEC91E071DE4AE0B70180917E0290910B
:100720007F0255D28CE691E067DE9FEF27EA81E6F3
:10073000915020408040E1F700C0000085E991E041
:100740005BDE9FEF27EA81E6915020408040E1F791
:1007500000C000008CEF91E04FDE9FEF27EA81E6BA
:10076000915020408040E1F700C00000C70144DE06
:100770009FEF27EA81E6915020408040E1F700C0DA
:1007800000008EEC91E038DE4AE0B70180917C02F7
:1007900090917D021CD28CE691E02EDE9FEF27EA3D
:1007A00081E6915020408040E1F700C0000085E9DB
:1007B00091E022DE9FEF27EA81E6915020408040C1
:1007C000E1F700C0000085E292E016DE9FEF27EA25
:1007D00081E6915020408040E1F700C00000C70151
:1007E0000BDE9FEF27EA81E6915020408040E1F741
:1007F00000C000008EEC91E0FFDD4AE0B70180917F
:100800007A0290917B02E3D18CE691E0F5DD9FEFD7
:1008100027EA81E6915020408040E1F700C00000C7
:1008200085E991E0E9DD9FEF27EA81E691502040DC
:100830008040E1F700C000008EE492E0DDDD9FEF34
:1008400027EA81E6915020408040E1F700C0000097
:10085000C701D2DD9FEF27EA81E69150204080401A
:10086000E1F700C000008EEC91E0C6DD9FEF23EDC4
:1008700080E3915020408040E1F700C000000F90DD
:100880000F900F900F900F900F90A4CE5058BB2751
:10089000AA270ED0E0C0D1D030F0D6D020F031F46D
:1008A0009F3F11F41EF4C6C00EF4E095E7FBBCC0F8
:1008B000E92FE2D080F3BA17620773078407950720
:1008C00018F071F49EF5FAC00EF4E0950B2EBA2FD5
:1008D000A02D0B01B90190010C01CA01A001112446
:1008E000FF27591B99F0593F50F4503E68F11A16F2
:1008F000F040A22F232F342F4427585FF3CF469583
:1009000037952795A795F0405395C9F77EF41F16A4
:10091000BA0B620B730B840BBAF09150A1F0FF0F6E
:10092000BB1F661F771F881FC2F70EC0BA0F621F5A
:10093000731F841F48F4879577956795B795F7954A
:100940009E3F08F0B3CF9395880F08F09927EE0FDC
:1009500097958795089598D088F09F5790F0B92F74
:100960009927B751A0F0D1F0660F771F881F991F04
:100970001AF0BA95C9F712C0B13081F09FD0B1E03A
:1009800008959CC0672F782F8827B85F39F0B93F4A
:10099000CCF3869577956795B395D9F73EF4909506
:1009A0008095709561957F4F8F4F9F4F0895E89484
:1009B00009C097FB3EF490958095709561957F4FA7
:1009C0008F4F9F4F9923A9F0F92F96E9BB27939555
:1009D000F695879577956795B795F111F8CFFAF465
:1009E000BB0F11F460FF1BC06F5F7F4F8F4F9F4F96
:1009F00016C0882311F096E911C0772321F09EE8F4
:100A0000872F762F05C0662371F096E8862F70E059
:100A100060E02AF09A95660F771F881FDAF7880F33
:100A20009695879597F9089597F99F6780E870E004
:100A300060E008959FEF80EC089500240A94161654
:100A4000170618060906089500240A9412161306BC
:100A5000140605060895092E0394000C11F488234A
:100A600052F0BB0F40F4BF2B11F460FF04C06F5F66
:100A70007F4F8F4F9F4F089557FD9058440F551F3C
:100A800059F05F3F71F04795880F97FB991F61F010
:100A90009F3F79F087950895121613061406551F87
:100AA000F2CF4695F1DF08C0161617061806991FF3
:100AB000F1CF86957105610508940895E894BB27E8
:100AC00066277727CB0197F908950BD0C4CFB5DF00
:100AD00028F0BADF18F0952309F0A6CFABCF112488
:100AE000EECFCADFA0F3959FD1F3950F50E0551FCD
:100AF000629FF001729FBB27F00DB11D639FAA2773
:100B0000F00DB11DAA1F649F6627B00DA11D661FC1
:100B1000829F2227B00DA11D621F739FB00DA11DE2
:100B2000621F839FA00D611D221F749F3327A00D9C
:100B3000611D231F849F600D211D822F762F6A2F38
:100B400011249F5750408AF0E1F088234AF0EE0FBD
:100B5000FF1FBB1F661F771F881F91505040A9F7CA
:100B60009E3F510570F060CFAACF5F3FECF3983EF7
:100B7000DCF3869577956795B795F795E7959F5F31
:100B8000C1F7FE2B880F911D9695879597F90895CB
:100B9000EF920F931F93CF93DF93E80147FD02C0BD
:100BA00034E001C034E1042E000C550B57FF03C0A4
:100BB000519541955109E32E022F242FAE011BD2EE
:100BC000CE01DF91CF911F910F91EF900895BB2738
:100BD0004A3031F4992322F4BDE2909581959F4FDC
:100BE00001C0BB27FB015527AA27880F991FAA1F01
:100BF000A41710F0A41B83955051B9F7A05DAA3338
:100C000008F0A95DA193009779F7B111B193119202
:100C1000CB0136C4AEE0B0E0EFE0F6E0E9C40D8908
:100C20001E8986E08C831A8309838FEF9FE79E835A
:100C30008D83AE01475E5F4F6F89788DCE0101963F
:100C400008D0EF81F885E00FF11F10822E96E4E0C6
:100C5000EBC4ABE0B0E0EEE2F6E0BCC46C017B01BB
:100C60008A01FC0117821682838181FFBFC1CE01F8
:100C700001963C01F6019381F70193FD859193FF65
:100C800081917F01882309F4ADC1853239F493FD48
:100C9000859193FF81917F01853221F4B60190E027
:100CA000FFD3E8CF912C212C312CFFE1F315D8F0A4
:100CB0008B3279F038F4803279F08332A1F4232D2D
:100CC00020611DC08D3261F0803369F4232D2160D5
:100CD00016C0832D8260382EE32DE4603E2E2AC09C
:100CE000F32DF8601DC037FC2DC020ED280F2A30F1
:100CF00040F08E32B9F436FC75C1232D2064322EBB
:100D000019C036FE06C08AE0989E200D1124922E4E
:100D100011C0EAE02E9E200D1124222EF32DF06248
:100D20003F2E08C08C3621F4832D8068382E02C0F7
:100D3000883641F4F70193FD859193FF81917F01FE
:100D40008111B3CF982F9F7D9554933028F40C5F79
:100D50001F4F9FE399830DC0833631F0833771F0C5
:100D6000833509F055C020C0F801808189830E5F6A
:100D70001F4F88248394912C530112C02801F2E064
:100D80004F0E511CF801A080B18036FE03C0692DC2
:100D900070E002C06FEF7FEFC50167D34C018201A5
:100DA000F32DFF773F2E15C0280122E0420E511C83
:100DB000F801A080B18036FE03C0692D70E002C04A
:100DC0006FEF7FEFC50146D34C01F32DF0683F2E46
:100DD000820133FC19C0822D90E088169906A0F498
:100DE000B60180E290E05CD32A94F5CFF50137FCA0
:100DF000859137FE81915F01B60190E051D32110BA
:100E00002A9421E0821A91088114910479F7E1C0B3
:100E1000843611F0893639F5F80137FE07C0608154
:100E20007181828193810C5F1F4F08C06081718145
:100E3000072E000C880B990B0E5F1F4FF32DFF76CA
:100E40003F2E97FF09C090958095709561957F4FD3
:100E50008F4F9F4FF0683F2E2AE030E0A3015CD314
:100E6000882E861844C0853731F4232D2F7EB22E6C
:100E70002AE030E025C0932D997FB92E8F36C1F03E
:100E800018F4883579F0AEC0803719F0883721F032
:100E9000A9C0E92FE061BE2EB4FE0DC0FB2DF460A9
:100EA000BF2E09C034FE0AC0292F2660B22E06C00C
:100EB00028E030E005C020E130E002C020E132E06F
:100EC000F801B7FE07C060817181828193810C5F58
:100ED0001F4F06C06081718180E090E00E5F1F4F60
:100EE000A3011AD3882E8618FB2DFF773F2E36FEDE
:100EF0000DC0232D2E7FA22E891458F434FE0BC072
:100F000032FC09C0832D8E7EA82E05C0B82CA32CE0
:100F100003C0B82C01C0B92CA4FE0FC0FE01E80D1F
:100F2000F11D8081803321F49A2D997EA92E09C06C
:100F3000A2FE06C0B394B39404C08A2D867809F04B
:100F4000B394A3FC10C0A0FE06C0B21480F4280C19
:100F5000922C9B180DC0B21458F4B60180E290E0B8
:100F60009FD2B394F8CFB21418F42B1802C0982C67
:100F7000212CA4FE0FC0B60180E390E091D2A2FE26
:100F800016C0A1FC03C088E790E002C088E590E0AD
:100F9000B6010CC08A2D867851F0A1FE02C08BE20A
:100FA00001C080E2A7FC8DE2B60190E079D28914FD
:100FB00030F4B60180E390E073D29A94F8CF8A942B
:100FC000F301E80DF11D8081B60190E069D2811036
:100FD000F6CF222009F44ECEB60180E290E060D236
:100FE0002A94F7CFF6018681978102C08FEF9FEF99
:100FF0002B96E2E10BC3A9E0B0E0E0E0F8E0F0C23C
:101000006A01122FB02E2BE3201720F0FF24F39457
:10101000F00E02C02CE3F22E0F2D27E0AE014F5F41
:101020005F4F40D1BC014981842F8970813031F0FC
:10103000E1FC06C0E0FE06C090E205C09DE203C0F0
:101040009BE201C090E05E2D507143FF3CC09111C6
:1010500002C083E001C084E0811718F4212F281B0F
:1010600001C020E051110BC0F601822F30E288232D
:1010700019F031938150FBCFC20ED11C20E099238F
:1010800029F0D6019C93F60131966F01C6010396B3
:10109000E2FE0AC03EE4D6013C9341E411964C9333
:1010A000119712963C9306C03EE6F601308341E666
:1010B00041833283FC01322F40E2332309F442C0E2
:1010C00041933150FACF42FF44C0911102C083E0F6
:1010D00001C084E0811718F4212F281B01C020E0F3
:1010E00051110BC0F601822F30E2882319F03193A1
:1010F0008150FBCFC20ED11C20E0992329F0D601EC
:101100009C93F60131966F01C6010396E2FE0BC077
:1011100039E4D6013C933EE411963C93119736E4B2
:1011200012963C9307C039E6F60130833EE63183E0
:1011300036E63283FC01322F40E2332319F041932B
:101140003150FBCFFC01E20FF11D10828EEF9FEFBB
:10115000A6C021E030E0911102C020E030E0161678
:1011600017061CF4FB01319602C0E1E0F0E02E0FFF
:101170003F1FBB2021F0EB2DF0E0319602C0E0E0F4
:10118000F0E02E0F3F1FE12FF0E02E173F071CF479
:10119000121B212F01C020E08E2D887159F4F60119
:1011A000822F30E2882319F031938150FBCFC20E99
:1011B000D11C20E0992329F0D6019C93F6013196A9
:1011C0006F0151110BC0F601822F90E3882319F0B3
:1011D00091938150FBCFC20ED11C20E00F2D060F42
:1011E0009A81342F307144FF03C0913309F40150C8
:1011F000101624F4093018F008E001C001E0AB013A
:1012000077FF02C040E050E0FB01E41BF50BA1E0DA
:10121000B0E0AC0FBD1FEA0FFB1F8EE2A82E4B0102
:10122000801A91080B2D10E01195019511094F3F7F
:10123000BFEF5B0721F4D601AC9211966D016417E4
:1012400075072CF08416950614F4818101C080E3A3
:10125000415051093196D60111967D014017510731
:1012600024F0D6018C936701E2CF6417750739F437
:10127000963320F4953319F4311101C081E3F6015E
:101280008083F701822F90E2882319F09193815097
:10129000FBCFF701E20FF11D108280E090E029966C
:1012A000ECE0BAC1283008F027E03327DA01990FC3
:1012B000311D87FD916000966105710539F432603A
:1012C0002E5F3D9330E32A95E1F708959F3F30F07C
:1012D00080387105610509F03C5F3C5F3D939130BA
:1012E00008F08068911DDF93CF931F930F93FF92B7
:1012F000EF92192F987F9695E92F96959695E90F7D
:10130000FF27E25FFE4F99273327EE24FF24A70132
:10131000E70105900894079428F4360FE71EF81E9D
:10132000491F511D660F771F881F991F0694A1F74B
:101330000590079428F4E70EF81E491F561FC11D9B
:10134000770F881F991F661F0694A1F705900794D1
:1013500028F4F80E491F561FC71FD11D880F991F6B
:10136000661F771F0694A1F70590079420F4490F94
:10137000561FC71FD81F990F661F771F881F069417
:10138000A9F784911095177041F0D695C795579598
:101390004795F794E7941A95C1F7E4EBF0E0689469
:1013A0001590159135916591959105907FE2739512
:1013B000E118F10A430B560BC90BD009C0F7E10C39
:1013C000F11E431F561FC91FD01D7EF4703311F448
:1013D0008A95E6CFE894015030F0080F0AF4002710
:1013E000021708F4202F2395022F7A3328F079E38F
:1013F0007D932A95E9F710C07D932A9589F6069486
:1014000097956795379517951794E118F10A430B4F
:10141000560BC90BD00998F023957E9173957A33BA
:1014200008F070E37C932013B8F77E9170617D9390
:1014300030F0839571E37D9370E32A95E1F71124F1
:10144000EF90FF900F911F91CF91DF91992787FD2A
:1014500090950895FC010590615070400110D8F7F7
:10146000809590958E0F9F1F0895FC0161507040EC
:1014700001900110D8F7809590958E0F9F1F0895C9
:10148000DC01FC01672F71917723E1F7329704C0EB
:101490007C916D9370836291AE17BF07C8F3089576
:1014A0000F931F93CF93DF93FB01238121FD03C093
:1014B0008FEF9FEF2CC022FF16C0468157812481F9
:1014C00035814217530744F4A081B1819D012F5FFC
:1014D0003F4F318320838C93268137812F5F3F4F8D
:1014E0003783268314C08B01EC01FB010084F18556
:1014F000E02D0995892BE1F6D80116968D919C91E6
:101500001797019617969C938E931697CE01DF91AD
:10151000CF911F910F910895FA01AA27283051F118
:10152000203181F1E8946F936E7F6E5F7F4F8F4F14
:101530009F4FAF4FB1E03ED0B4E03CD0670F781F73
:10154000891F9A1FA11D680F791F8A1F911DA11D58
:101550006A0F711D811D911DA11D20D009F4689491
:101560003F912AE0269F11243019305D3193DEF639
:10157000CF010895462F4770405D4193B3E00FD0EF
:10158000C9F7F6CF462F4F70405D4A3318F0495DDA
:1015900031FD4052419302D0A9F7EACFB4E0A695BD
:1015A0009795879577956795BA95C9F700976105DF
:1015B000710508959B01AC010A2E06945795479535
:1015C00037952795BA95C9F7620F731F841F951F2A
:1015D000A01D08952F923F924F925F926F927F923B
:1015E0008F929F92AF92BF92CF92DF92EF92FF9233
:1015F0000F931F93CF93DF93CDB7DEB7CA1BDB0BDF
:101600000FB6F894DEBF0FBECDBF09942A88398883
:1016100048885F846E847D848C849B84AA84B9848A
:10162000C884DF80EE80FD800C811B81AA81B98196
:10163000CE0FD11D0FB6F894DEBF0FBECDBFED01AA
:061640000895F894FFCFAD
:1016460041540D0A0041542B43574D4F44453D31FB
:101656000D0A0041542B43574A41503D2253616DB8
:1016660073756E672047616C617879204E6F74657B
:10167600392037313537222C2243616D65726F6E02
:101686006B69726B31220D0A0041542B4349504D50
:1016960055583D300D0A002054656D7065726174B1
:1016A600757265203D20257320430A0041542B4363
:1016B600495053544152543D22544350222C223116
:1016C60038342E3130362E3135332E313439222C02
:1016D60038300D0A0041542B43495053454E443D82
:1016E60034350D0A00474554202F757064617465C2
:1016F6003F6B65793D55314B5A44334B5059424601
:10170600483544495A266669656C64313D000D0AC0
:101716000D0A00474554202F7570646174653F6B50
:1017260065793D55314B5A44334B505942464835FD
:1017360044495A266669656C64323D004745542023
:101746002F7570646174653F6B65793D55314B5AF1
:1017560044334B50594246483544495A26666965D2
:101766006C64333D00474554202F75706461746581
:101776003F6B65793D55314B5A44334B5059424680
:10178600483544495A266669656C64343D004745C8
:1017960054202F7570646174653F6B65793D5531D2
:1017A6004B5A44334B50594246483544495A2666AB
:0817B60069656C64353D00001B
:00000001FF
