S01000004441325F635F54332E73726563B5
S113000059C0000067C0000065C0000063C0000064
S113001061C000005FC000005DC000005BC0000064
S113002059C0000057C0000055C0000053C0000074
S113003051C000004FC0000068C000004BC0000069
S113004049C0000047C0000045C0000043C0000094
S113005041C000003FC000003DC000003BC00000A4
S113006039C0000037C0000035C0000033C00000B4
S113007031C000002FC000002DC000002BC00000C4
S113008029C0000027C0000025C0000023C00000D4
S113009021C000001FC000001DC000001BC00000E4
S11300A019C0000017C0000015C0000013C00000F4
S11300B011C0000011241FBECFEFD8E0DEBFCDBFBA
S11300C021E0A0E0B1E001C01D92A230B207E1F747
S11300D00BD040C095CF95B184B180628F7784B93D
S11300E0892F806A85B90895F6DF239A82E687BD51
S11300F016BC82E084BD85B5836085BDEEE6F0E084
S11301008081826080837894FFCF1F920F920FB614
S11301100F9211242F938F939F93809100019091BC
S1130120010101969093010180930001883E934060
S113013041F495B188E0892785B9109201011092A4
S11301400001A99A9F918F912F910F900FBE0F904C
S10B01501F901895F894FFCFED
S9030000FC
