:10000000D6C00000E7C00000E5C00000E3C000006B
:10001000E1C00000DFC00000DDC00000DBC0000068
:10002000D9C00000D7C00000D5C00000D3C0000078
:10003000D1C00000CFC00000CDC00000CBC0000088
:10004000C9C00000C7C00000C5C00000C3C0000098
:10005000C1C00000BFC00000BDC00000BBC00000A8
:10006000B9C00000B7C00000B5C00000B3C00000B8
:10007000B1C00000AFC00000ADC00000ABC00000C8
:10008000A9C00000A7C00000A5C00000A3C00000D8
:10009000A1C000009FC000009DC000009BC00000E8
:1000A00099C0000097C0000095C0000093C00000F8
:1000B00091C0000000407A10F35A00A0724E180957
:1000C0000010A5D4E80000E87648170000E40B54BF
:1000D000020000CA9A3B000000E1F505000080968E
:1000E0009800000040420F000000A08601000000C0
:1000F000102700000000E80300000000640000007A
:1001000000000A00000000000100000000002C7642
:10011000D888DC674F0823DFC1DFAE59E1B1B7965D
:10012000E5E3E453C63AE651997696E8E6C28426BA
:10013000EB898C9B62ED407C6FFCEFBC9C9F40F296
:10014000BAA56FA5F490055A2AF75C936B6CF96712
:100150006DC11BFCE0E40D47FEF520E6B500D0EDD7
:10016000902E0300943577050080841E080000203F
:100170004E0A000000C80C333333330F986E1283DD
:100180001141EF8D2114893BE65516CFFEE6DB18B1
:10019000D1844B381BF77C1D901DA4BBE424203276
:1001A00084725E228100C9F124ECA1E53D2711246F
:1001B0001FBECFEFD8E0DEBFCDBF11E0A0E0B1E0C1
:1001C000E6E5FBE002C005900D92AC30B107D9F72F
:1001D00022D0BFC415CF88E08093C10086E0809311
:1001E000C20087E68093C4000895E0ECF0E09081BF
:1001F00095FFFDCF8093C6000895CF93DF93EC0168
:100200008881882329F02196F0DF89918111FCCF24
:10021000DF91CF910895DFDF98D18C0196D17C01D9
:1002200094D1EC01B701FF0C880B990B9CD06B01AA
:100230007C01BE01DD0F880B990B95D09B01AC01B1
:10024000C701B60126D06B017C0184E091E0D5DFC7
:100250008DE0CBDF4AE06AE071E0C80184D18AE03A
:1002600091E0CBDF8DE0C1DF0AE011E023E043E065
:10027000C701B60104D1C801C0DF8DE0B6DF2FEFA2
:1002800083ED90E3215080409040E1F700C00000F2
:10029000C3CF0CD0BAC0B2D040F0A9D030F021F416
:1002A0005F3F19F09BC05111E4C09EC0BFD098F3CE
:1002B0009923C9F35523B1F3951B550BBB27AA27E7
:1002C00062177307840738F09F5F5F4F220F331F59
:1002D000441FAA1FA9F333D00E2E3AF0E0E830D025
:1002E00091505040E695001CCAF729D0FE2F27D028
:1002F000660F771F881FBB1F261737074807AB07F6
:10030000B0E809F0BB0B802DBF01FF2793585F4F6A
:100310002AF09E3F510568F061C0ABC05F3FECF32F
:10032000983EDCF3869577956795B795F7959F5F2F
:10033000C9F7880F911D9695879597F90895E1E083
:10034000660F771F881FBB1F621773078407BA07E2
:1003500020F0621B730B840BBA0BEE1F88F7E0953D
:100360000895E89409C097FB3EF4909580957095A8
:1003700061957F4F8F4F9F4F9923A9F0F92F96E9F1
:10038000BB279395F695879577956795B795F11166
:10039000F8CFFAF4BB0F11F460FF1BC06F5F7F4F03
:1003A0008F4F9F4F16C0882311F096E911C0772315
:1003B00021F09EE8872F762F05C0662371F096E81E
:1003C000862F70E060E02AF09A95660F771F881FED
:1003D000DAF7880F9695879597F9089597F99F67AB
:1003E00080E870E060E008959FEF80EC08950024BD
:1003F0000A941616170618060906089500240A948A
:1004000012161306140605060895092E0394000C0F
:1004100011F4882352F0BB0F40F4BF2B11F460FF9E
:1004200004C06F5F7F4F8F4F9F4F089557FD9058C7
:10043000440F551F59F05F3F71F04795880F97FBA8
:10044000991F61F09F3F79F0879508951216130662
:100450001406551FF2CF4695F1DF08C01616170691
:100460001806991FF1CF86957105610508940895C6
:10047000E894BB2766277727CB0197F90895EF9279
:100480000F931F93CF93DF93E80147FD02C034E041
:1004900001C034E1042E000C550B57FF03C05195E9
:1004A00041955109E32E022F242FAE017FD0CE01BA
:1004B000DF91CF911F910F91EF9008958F929F92AE
:1004C000AF92BF92CF92DF92EF92FF92CF93DF93E2
:1004D000EC01688179818A819B81611571058105B3
:1004E000910521F464E279ED8BE597E02DE133EF9E
:1004F00041E050E09AD249015A019B01AC01A7EAC0
:10050000B1E4AFD26B017C01ACEEB4EFA501940174
:10051000B4D2DC01CB018C0D9D1DAE1DBF1DB7FFFC
:1005200003C00197A109B04888839983AA83BB833C
:100530009F77DF91CF91FF90EF90DF90CF90BF90AA
:10054000AF909F908F900895B9CF80E091E0B6CFA3
:10055000A0E0B0E08093000190930101A09302011C
:10056000B09303010895BB274A3031F4992322F454
:10057000BDE2909581959F4F01C0BB27FB01552798
:10058000AA27880F991FAA1FA41710F0A41B8395F0
:100590005051B9F7A05DAA3308F0A95DA193009767
:1005A00079F7B111B1931192CB012FC2A9E0B0E05C
:1005B000EBEDF2E06CC26A01122FB02E2BE3201794
:1005C00020F0FF24F394F00E02C02CE3F22E0F2D46
:1005D00027E0AE014F5F5F4F40D1BC014981842FBE
:1005E0008970813031F0E1FC06C0E0FE06C090E287
:1005F00005C09DE203C09BE201C090E05E2D5071FA
:1006000043FF3CC0911102C083E001C084E0811728
:1006100018F4212F281B01C020E051110BC0F60156
:10062000822F30E2882319F031938150FBCFC20E24
:10063000D11C20E0992329F0D6019C93F601319634
:100640006F01C6010396E2FE0AC03EE4D6013C9368
:1006500041E411964C93119712963C9306C03EE6E6
:10066000F601308341E641833283FC01322F40E2C0
:10067000332309F442C041933150FACF42FF44C0C2
:10068000911102C083E001C084E0811718F4212F8A
:10069000281B01C020E051110BC0F601822F30E26F
:1006A000882319F031938150FBCFC20ED11C20E07A
:1006B000992329F0D6019C93F60131966F01C6016A
:1006C0000396E2FE0BC039E4D6013C933EE411965A
:1006D0003C93119736E412963C9307C039E6F60135
:1006E00030833EE6318336E63283FC01322F40E22E
:1006F000332319F041933150FBCFFC01E20FF11D80
:1007000010828EEF9FEFA6C021E030E0911102C071
:1007100020E030E0161617061CF4FB01319602C0EB
:10072000E1E0F0E02E0F3F1FBB2021F0EB2DF0E0C9
:10073000319602C0E0E0F0E02E0F3F1FE12FF0E025
:100740002E173F071CF4121B212F01C020E08E2D15
:10075000887159F4F601822F30E2882319F0319321
:100760008150FBCFC20ED11C20E0992329F0D60185
:100770009C93F60131966F0151110BC0F601822F47
:1007800090E3882319F091938150FBCFC20ED11CC6
:1007900020E00F2D060F9A81342F307144FF03C0E3
:1007A000913309F40150101624F4093018F008E0D0
:1007B00001C001E0AB0177FF02C040E050E0FB0167
:1007C000E41BF50BA1E0B0E0AC0FBD1FEA0FFB1F6F
:1007D0008EE2A82E4B01801A91080B2D10E0119586
:1007E000019511094F3FBFEF5B0721F4D601AC9291
:1007F00011966D01641775072CF08416950614F494
:10080000818101C080E3415051093196D601119692
:100810007D014017510724F0D6018C936701E2CF88
:100820006417750739F4963320F4953319F43111B0
:1008300001C081E3F6018083F701822F90E28823D3
:1008400019F091938150FBCFF701E20FF11D108257
:1008500080E090E02996ECE036C1283008F027E0EF
:100860003327DA01990F311D87FD916000966105EC
:10087000710539F432602E5F3D9330E32A95E1F73C
:1008800008959F3F30F080387105610509F03C5FA5
:100890003C5F3D93913008F08068911DDF93CF93CA
:1008A0001F930F93FF92EF92192F987F9695E92F40
:1008B00096959695E90FFF27E25FFE4F992733271C
:1008C000EE24FF24A701E70105900894079428F47B
:1008D000360FE71EF81E491F511D660F771F881F30
:1008E000991F0694A1F70590079428F4E70EF81EC7
:1008F000491F561FC11D770F881F991F661F069439
:10090000A1F70590079428F4F80E491F561FC71F3A
:10091000D11D880F991F661F771F0694A1F70590B8
:10092000079420F4490F561FC71FD81F990F661F41
:10093000771F881F0694A9F784911095177041F0CE
:10094000D695C79557954795F794E7941A95C1F7AB
:10095000E4EBF0E0689415901591359165919591CF
:1009600005907FE27395E118F10A430B560BC90B12
:10097000D009C0F7E10CF11E431F561FC91FD01D3F
:100980007EF4703311F48A95E6CFE894015030F08C
:10099000080F0AF40027021708F4202F2395022FCE
:1009A0007A3328F079E37D932A95E9F710C07D9397
:1009B0002A9589F606949795679537951795179414
:1009C000E118F10A430B560BC90BD00998F0239597
:1009D0007E9173957A3308F070E37C932013B8F717
:1009E0007E9170617D9330F0839571E37D9370E328
:1009F0002A95E1F71124EF90FF900F911F91CF916D
:100A0000DF91992787FD90950895DC01FC01672F00
:100A100071917723E1F7329704C07C916D937083D5
:100A20006291AE17BF07C8F30895052E97FB16F421
:100A300000940FD057FD05D05BD007FC02D046F4E0
:100A400008C050954095309521953F4F4F4F5F4FCF
:100A5000089590958095709561957F4F8F4F9F4F2A
:100A6000089568D0A59F900DB49F900DA49F800D10
:100A7000911D11240895B7FFF4CFF3DF821B930B70
:100A800008952F923F924F925F926F927F928F9232
:100A90009F92AF92BF92CF92DF92EF92FF920F930D
:100AA0001F93CF93DF93CDB7DEB7CA1BDB0B0FB617
:100AB000F894DEBF0FBECDBF09942A8839884888D4
:100AC0005F846E847D848C849B84AA84B984C8846A
:100AD000DF80EE80FD800C811B81AA81B981CE0F61
:100AE000D11D0FB6F894DEBF0FBECDBFED01089546
:100AF000A1E21A2EAA1BBB1BFD010DC0AA1FBB1F22
:100B0000EE1FFF1FA217B307E407F50720F0A21B93
:100B1000B30BE40BF50B661F771F881F991F1A9400
:100B200069F760957095809590959B01AC01BD012A
:100B3000CF010895A29FB001B39FC001A39F700D84
:100B4000811D1124911DB29F700D811D1124911DD5
:060B50000895F894FFCFA8
:0C0B56000100000048656C6C6F0030006E
:00000001FF
