S01000004441325F635F54312E73726563B7
S113000059C000005FC000005DC000005BC000007C
S113001059C0000057C0000055C0000053C0000084
S113002051C000004FC000004DC000004BC0000094
S113003049C0000047C0000045C0000043C00000A4
S113004041C000003FC000003DC000003BC00000B4
S113005039C0000037C0000035C0000033C00000C4
S113006031C000002FC000002DC000002BC00000D4
S113007029C0000027C0000025C0000023C00000E4
S113008021C000001FC000001DC000001BC00000F4
S113009019C0000017C0000015C0000013C0000004
S11300A011C000000FC000000DC000000BC0000014
S11300B009C0000011241FBECFEFD8E0DEBFCDBFC2
S11300C00BD028C09DCF95B184B180628F7784B95D
S11300D0892F806A85B90895F6DF239A14BC86E0D7
S11300E086BD85B5856085BD68E056E041E028EEB3
S11300F033E007C0A89BFECF0197E1F721503109F7
S113010019F081E792E0F6CF85B1862785B956BD0F
S10B011045BBEDCFF894FFCFCD
S9030000FC
